{
  "_format": "hh-sol-artifact-1",
  "contractName": "Transactions",
  "sourceName": "contracts/Transactions.sol",
  "abi": [
    {
      "inputs": [
        {
          "internalType": "string",
          "name": "message",
          "type": "string"
        }
      ],
      "stateMutability": "nonpayable",
      "type": "constructor"
    },
    {
      "anonymous": false,
      "inputs": [
        {
          "indexed": false,
          "internalType": "address",
          "name": "from",
          "type": "address"
        },
        {
          "indexed": false,
          "internalType": "address",
          "name": "receiver",
          "type": "address"
        },
        {
          "indexed": false,
          "internalType": "uint256",
          "name": "amount",
          "type": "uint256"
        },
        {
          "indexed": false,
          "internalType": "string",
          "name": "message",
          "type": "string"
        },
        {
          "indexed": false,
          "internalType": "uint256",
          "name": "timestamp",
          "type": "uint256"
        },
        {
          "indexed": false,
          "internalType": "string",
          "name": "keyword",
          "type": "string"
        }
      ],
      "name": "Transfer",
      "type": "event"
    },
    {
      "inputs": [
        {
          "internalType": "address payable",
          "name": "receiver",
          "type": "address"
        },
        {
          "internalType": "uint256",
          "name": "amount",
          "type": "uint256"
        },
        {
          "internalType": "string",
          "name": "message",
          "type": "string"
        },
        {
          "internalType": "string",
          "name": "keyword",
          "type": "string"
        }
      ],
      "name": "addToBlockchain",
      "outputs": [],
      "stateMutability": "nonpayable",
      "type": "function"
    },
    {
      "inputs": [],
      "name": "getAllTransactions",
      "outputs": [
        {
          "components": [
            {
              "internalType": "address",
              "name": "sender",
              "type": "address"
            },
            {
              "internalType": "address",
              "name": "receiver",
              "type": "address"
            },
            {
              "internalType": "uint256",
              "name": "amount",
              "type": "uint256"
            },
            {
              "internalType": "string",
              "name": "message",
              "type": "string"
            },
            {
              "internalType": "uint256",
              "name": "timestamp",
              "type": "uint256"
            },
            {
              "internalType": "string",
              "name": "keyword",
              "type": "string"
            }
          ],
          "internalType": "struct Transactions.TransferStruct[]",
          "name": "",
          "type": "tuple[]"
        }
      ],
      "stateMutability": "view",
      "type": "function"
    },
    {
      "inputs": [],
      "name": "getTransactionCount",
      "outputs": [
        {
          "internalType": "uint256",
          "name": "",
          "type": "uint256"
        }
      ],
      "stateMutability": "view",
      "type": "function"
    },
    {
      "inputs": [
        {
          "internalType": "uint256",
          "name": "",
          "type": "uint256"
        }
      ],
      "name": "transactions",
      "outputs": [
        {
          "internalType": "address",
          "name": "sender",
          "type": "address"
        },
        {
          "internalType": "address",
          "name": "receiver",
          "type": "address"
        },
        {
          "internalType": "uint256",
          "name": "amount",
          "type": "uint256"
        },
        {
          "internalType": "string",
          "name": "message",
          "type": "string"
        },
        {
          "internalType": "uint256",
          "name": "timestamp",
          "type": "uint256"
        },
        {
          "internalType": "string",
          "name": "keyword",
          "type": "string"
        }
      ],
      "stateMutability": "view",
      "type": "function"
    },
    {
      "inputs": [],
      "name": "transactionsCount",
      "outputs": [
        {
          "internalType": "uint256",
          "name": "",
          "type": "uint256"
        }
      ],
      "stateMutability": "view",
      "type": "function"
    }
  ],
  "bytecode": "0x60806040523480156200001157600080fd5b506040516200131e3803806200131e833981810160405281019062000037919062000192565b6200004d816200005460201b620006b51760201c565b5062000363565b620000f4816040516024016200006b919062000218565b6040516020818303038152906040527f41304fac000000000000000000000000000000000000000000000000000000007bffffffffffffffffffffffffffffffffffffffffffffffffffffffff19166020820180517bffffffffffffffffffffffffffffffffffffffffffffffffffffffff8381831617835250505050620000f760201b60201c565b50565b60008151905060006a636f6e736f6c652e6c6f679050602083016000808483855afa5050505050565b600062000137620001318462000265565b6200023c565b9050828152602081018484840111156200015057600080fd5b6200015d848285620002b7565b509392505050565b600082601f8301126200017757600080fd5b81516200018984826020860162000120565b91505092915050565b600060208284031215620001a557600080fd5b600082015167ffffffffffffffff811115620001c057600080fd5b620001ce8482850162000165565b91505092915050565b6000620001e4826200029b565b620001f08185620002a6565b935062000202818560208601620002b7565b6200020d8162000352565b840191505092915050565b60006020820190508181036000830152620002348184620001d7565b905092915050565b6000620002486200025b565b9050620002568282620002ed565b919050565b6000604051905090565b600067ffffffffffffffff82111562000283576200028262000323565b5b6200028e8262000352565b9050602081019050919050565b600081519050919050565b600082825260208201905092915050565b60005b83811015620002d7578082015181840152602081019050620002ba565b83811115620002e7576000848401525b50505050565b620002f88262000352565b810181811067ffffffffffffffff821117156200031a576200031962000323565b5b80604052505050565b7f4e487b7100000000000000000000000000000000000000000000000000000000600052604160045260246000fd5b6000601f19601f8301169050919050565b610fab80620003736000396000f3fe608060405234801561001057600080fd5b50600436106100575760003560e01c806327506f531461005c5780632e7700f01461007a5780639ace38c214610098578063cc2d7ead146100cd578063fd99a746146100e9575b600080fd5b610064610107565b6040516100719190610c1c565b60405180910390f35b61008261034a565b60405161008f9190610c60565b60405180910390f35b6100b260048036038101906100ad919061093f565b610353565b6040516100c496959493929190610bad565b60405180910390f35b6100e760048036038101906100e291906108ac565b6104ef565b005b6100f16106af565b6040516100fe9190610c60565b60405180910390f35b60606001805480602002602001604051908101604052809291908181526020016000905b8282101561034157838290600052602060002090600602016040518060c00160405290816000820160009054906101000a900473ffffffffffffffffffffffffffffffffffffffff1673ffffffffffffffffffffffffffffffffffffffff1673ffffffffffffffffffffffffffffffffffffffff1681526020016001820160009054906101000a900473ffffffffffffffffffffffffffffffffffffffff1673ffffffffffffffffffffffffffffffffffffffff1673ffffffffffffffffffffffffffffffffffffffff1681526020016002820154815260200160038201805461021490610dfd565b80601f016020809104026020016040519081016040528092919081815260200182805461024090610dfd565b801561028d5780601f106102625761010080835404028352916020019161028d565b820191906000526020600020905b81548152906001019060200180831161027057829003601f168201915b50505050508152602001600482015481526020016005820180546102b090610dfd565b80601f01602080910402602001604051908101604052809291908181526020018280546102dc90610dfd565b80156103295780601f106102fe57610100808354040283529160200191610329565b820191906000526020600020905b81548152906001019060200180831161030c57829003601f168201915b5050505050815250508152602001906001019061012b565b50505050905090565b60008054905090565b6001818154811061036357600080fd5b90600052602060002090600602016000915090508060000160009054906101000a900473ffffffffffffffffffffffffffffffffffffffff16908060010160009054906101000a900473ffffffffffffffffffffffffffffffffffffffff16908060020154908060030180546103d890610dfd565b80601f016020809104026020016040519081016040528092919081815260200182805461040490610dfd565b80156104515780601f1061042657610100808354040283529160200191610451565b820191906000526020600020905b81548152906001019060200180831161043457829003601f168201915b50505050509080600401549080600501805461046c90610dfd565b80601f016020809104026020016040519081016040528092919081815260200182805461049890610dfd565b80156104e55780601f106104ba576101008083540402835291602001916104e5565b820191906000526020600020905b8154815290600101906020018083116104c857829003601f168201915b5050505050905086565b60008081548092919061050190610e60565b919050555060016040518060c001604052803373ffffffffffffffffffffffffffffffffffffffff1681526020018673ffffffffffffffffffffffffffffffffffffffff16815260200185815260200184815260200142815260200183815250908060018154018082558091505060019003906000526020600020906006020160009091909190915060008201518160000160006101000a81548173ffffffffffffffffffffffffffffffffffffffff021916908373ffffffffffffffffffffffffffffffffffffffff16021790555060208201518160010160006101000a81548173ffffffffffffffffffffffffffffffffffffffff021916908373ffffffffffffffffffffffffffffffffffffffff16021790555060408201518160020155606082015181600301908051906020019061063e929190610777565b506080820151816004015560a0820151816005019080519060200190610665929190610777565b5050507f416cfa4330a4565f45c2fd2dd4826a83a37443aba2ce6f79477c7355afac35fa3385858542866040516106a196959493929190610b3e565b60405180910390a150505050565b60005481565b61074b816040516024016106c99190610c3e565b6040516020818303038152906040527f41304fac000000000000000000000000000000000000000000000000000000007bffffffffffffffffffffffffffffffffffffffffffffffffffffffff19166020820180517bffffffffffffffffffffffffffffffffffffffffffffffffffffffff838183161783525050505061074e565b50565b60008151905060006a636f6e736f6c652e6c6f679050602083016000808483855afa5050505050565b82805461078390610dfd565b90600052602060002090601f0160209004810192826107a557600085556107ec565b82601f106107be57805160ff19168380011785556107ec565b828001600101855582156107ec579182015b828111156107eb5782518255916020019190600101906107d0565b5b5090506107f991906107fd565b5090565b5b808211156108165760008160009055506001016107fe565b5090565b600061082d61082884610ca0565b610c7b565b90508281526020810184848401111561084557600080fd5b610850848285610dbb565b509392505050565b60008135905061086781610f47565b92915050565b600082601f83011261087e57600080fd5b813561088e84826020860161081a565b91505092915050565b6000813590506108a681610f5e565b92915050565b600080600080608085870312156108c257600080fd5b60006108d087828801610858565b94505060206108e187828801610897565b935050604085013567ffffffffffffffff8111156108fe57600080fd5b61090a8782880161086d565b925050606085013567ffffffffffffffff81111561092757600080fd5b6109338782880161086d565b91505092959194509250565b60006020828403121561095157600080fd5b600061095f84828501610897565b91505092915050565b60006109748383610a90565b905092915050565b61098581610d85565b82525050565b61099481610d37565b82525050565b6109a381610d37565b82525050565b60006109b482610ce1565b6109be8185610d04565b9350836020820285016109d085610cd1565b8060005b85811015610a0c57848403895281516109ed8582610968565b94506109f883610cf7565b925060208a019950506001810190506109d4565b50829750879550505050505092915050565b6000610a2982610cec565b610a338185610d15565b9350610a43818560208601610dca565b610a4c81610f36565b840191505092915050565b6000610a6282610cec565b610a6c8185610d26565b9350610a7c818560208601610dca565b610a8581610f36565b840191505092915050565b600060c083016000830151610aa8600086018261098b565b506020830151610abb602086018261098b565b506040830151610ace6040860182610b20565b5060608301518482036060860152610ae68282610a1e565b9150506080830151610afb6080860182610b20565b5060a083015184820360a0860152610b138282610a1e565b9150508091505092915050565b610b2981610d7b565b82525050565b610b3881610d7b565b82525050565b600060c082019050610b53600083018961099a565b610b60602083018861097c565b610b6d6040830187610b2f565b8181036060830152610b7f8186610a57565b9050610b8e6080830185610b2f565b81810360a0830152610ba08184610a57565b9050979650505050505050565b600060c082019050610bc2600083018961099a565b610bcf602083018861099a565b610bdc6040830187610b2f565b8181036060830152610bee8186610a57565b9050610bfd6080830185610b2f565b81810360a0830152610c0f8184610a57565b9050979650505050505050565b60006020820190508181036000830152610c3681846109a9565b905092915050565b60006020820190508181036000830152610c588184610a57565b905092915050565b6000602082019050610c756000830184610b2f565b92915050565b6000610c85610c96565b9050610c918282610e2f565b919050565b6000604051905090565b600067ffffffffffffffff821115610cbb57610cba610f07565b5b610cc482610f36565b9050602081019050919050565b6000819050602082019050919050565b600081519050919050565b600081519050919050565b6000602082019050919050565b600082825260208201905092915050565b600082825260208201905092915050565b600082825260208201905092915050565b6000610d4282610d5b565b9050919050565b6000610d5482610d5b565b9050919050565b600073ffffffffffffffffffffffffffffffffffffffff82169050919050565b6000819050919050565b6000610d9082610d97565b9050919050565b6000610da282610da9565b9050919050565b6000610db482610d5b565b9050919050565b82818337600083830152505050565b60005b83811015610de8578082015181840152602081019050610dcd565b83811115610df7576000848401525b50505050565b60006002820490506001821680610e1557607f821691505b60208210811415610e2957610e28610ed8565b5b50919050565b610e3882610f36565b810181811067ffffffffffffffff82111715610e5757610e56610f07565b5b80604052505050565b6000610e6b82610d7b565b91507fffffffffffffffffffffffffffffffffffffffffffffffffffffffffffffffff821415610e9e57610e9d610ea9565b5b600182019050919050565b7f4e487b7100000000000000000000000000000000000000000000000000000000600052601160045260246000fd5b7f4e487b7100000000000000000000000000000000000000000000000000000000600052602260045260246000fd5b7f4e487b7100000000000000000000000000000000000000000000000000000000600052604160045260246000fd5b6000601f19601f8301169050919050565b610f5081610d49565b8114610f5b57600080fd5b50565b610f6781610d7b565b8114610f7257600080fd5b5056fea264697066735822122085660d93b832fe39499afaebed3d9bac468e8ad393fcfbce6c1787d5cb2702a964736f6c63430008040033",
  "linkReferences": {},
  "deployedLinkReferences": {}
}